:04000000803119280A
:100008007E1480318B190B1C0D288731FF27803116
:1000180017280B1F17282100911F17282000911F50
:1000280017288B31F8237E10090080311B285F3098
:1000380084008B3085006A308600003087000430E9
:100048008B318C2380312C3084008C30850020301B
:100058008600013087000F308B318C23803153307C
:1000680084000030850017308B3186238031A03022
:100078008400003085002D308B3186237E102000CF
:100088008631972E23088039A8002335AE00A21B9D
:100098002E142E0803195D282E0A031D5B28003034
:1000A800A3000030A2000030A1000030A000A21779
:1000B80065280030A3000030A2000030A100003005
:1000C800A00027088039F9007908A8062735A90073
:1000D800A61B2914290803197E28290A031D7C2830
:1000E8000030A7000030A6000030A5000030A400B2
:1000F800A61786280030A7000030A6000030A5000B
:100108000030A4002908031D2E08031D9428003080
:10011800A3000030A2000030A1000030A0000800B9
:100128002008F00026088C31E42480317108B400DE
:100138007008B3003308F900FA01FB01FC017C08E0
:10014800AD007B08AC007A08AB007908AA00340837
:10015800F900FA01FB01FC017C08B2007B08B10040
:100168007A08B0007908AF002108F00025088C3122
:10017800E42480317108B4007008B3003308F90032
:10018800FA01FB01FC017908AA077A08AB3D7B0854
:10019800AC3D7C08AD3D3408F900FA01FB01FC01D7
:1001A8007908AF077A08B03D7B08B13D7C08B23DBD
:1001B8002208F00024088C31E42480317108B4004E
:1001C8007008B3003308F900FA01FB01FC01790853
:1001D800AA077A08AB3D7B08AC3D7C08AD3D3408E6
:1001E800F900FA01FB01FC017908AF077A08B03D74
:1001F8007B08B13D7C08B23D0830AA35AB0DAC0D8B
:10020800AD0D890B01292108F00024088C31E42464
:1002180080317108B4007008B3003308AA073408A5
:10022800AB3D0030AC3DAD3D2008F00025088C31D9
:10023800E42480317108B4007008B3003308AA07B9
:100248003408AB3D0030AC3DAD3D0830AA35AB0DB0
:10025800AC0DAD0D890B2A292008F00024088C313B
:10026800E42480317108B4007008B3003308AA0789
:100278003408AB3D0030AC3DAD3D2108F000260808
:100288008C31E42480317108B4007008B30033085D
:10029800AF073408B03D0030B13DB23D2208F00050
:1002A80025088C31E42480317108B4007008B3004B
:1002B8003308AF073408B03D0030B13DB23D2208E5
:1002C800F00026088C31E42480317108B4007008ED
:1002D800B3003308F9003408FA00FB01FC010830C8
:1002E800F935FA0DFB0DFC0D890B74297908AF0758
:1002F8007A08B03D7B08B13D7C08B23D2D08F90075
:10030800FA01FB01FC017908AF077A08B03D7B08C8
:10031800B13D7C08B23D0830AA35AB0DAC0DAD0D32
:10032800890B90292E082907F900FA01FA0D790896
:10033800823EB300FF307A3DB400B11BB8290130CA
:10034800AF35B00DB10DB20D890BA429AD1B2F141B
:100358000130AA35AB0DAC0DAD0D890BAD29FF30C1
:10036800B307FF30B43DA129A901AD1FD129FF3042
:100378002A05F900FF302B05FA00FF302C05FB0099
:100388007F302D05FC007C087B047A04790403196E
:100398002F18CF29D129A901A90A29080319FA294F
:1003A8000130AF070030B03D0030B13D0030B23D04
:1003B800321CFA292F08F9003008FA003108FB002E
:1003C8003208FC000130FD00FC37FB0CFA0CF90C7C
:1003D800FD0BE8297C08B2007B08B1007A08B00060
:1003E8007908AF000130B3070030B43D3408803AD3
:1003F800F90080307902031D032AFF303302031C01
:100408000F2A7F302000B2008030B1000030B000E9
:100418000030AF00352A20003408803AF9008030D7
:100428007902031D192A013033020318262A0030E5
:100438002000B2000030B1000030B0000030AF0042
:10044800A801352A20003308AE00FF30AF05FF3081
:10045800B0057F30B1050030B2052E18B1172E3621
:10046800B2002808F9007908B2043208A30031085C
:10047800A2003008A1002F08A00008002A082000C8
:100488005E022100E20020005F082100E3002B0843
:10049800031C2B0F502A512AE30220006008210078
:1004A800E4002C08031C2C0F5A2A5B2AE402620879
:1004B800B0006308B1006408B200B21B6D2A3208AC
:1004C800031D782A3108031D782A103030020318DA
:1004D800782A2100B21F0800F1303002FF30313B8A
:1004E800FF30323B031808000A302100D6000030E4
:1004F800D7000030D8003008CD003108CE003208CF
:10050800CF004430D0000030D1000030D2008D310F
:10051800472582314D08D9004E08DA004F08DB0024
:100528008F31222782315608A7075708A83D580857
:10053800A93DA91BB02A2908031DA92A2808031DBB
:10054800A92A65302702031CB02A64302100A700BD
:100558000030A8000030C12A2100A91FC22AF630A5
:100568002702FF30283BFF30293B0318C22AF63008
:100578002100A700FF30A800FF30A90021002408AF
:10058800E2002508E3002608E4002708E50028081B
:10059800E6002908E7002D08CD002E08CE002F0818
:1005A800CF00F130D000FF30D100FF30D2008D31C4
:1005B800472582314D08E8004E08E9004F08EA0057
:1005C8003008EB003108EC003208ED000530EB355F
:1005D800EC0DED0D890BEB2A3008CD003108CE006B
:1005E8003208CF000F30D0000030D1000030D200E8
:1005F8008D31472582314D08EB074E08EC3D4F08F9
:10060800ED3D6B08E8076C08E93D6D08EA3D6808B0
:10061800E5076908E63D6A08E73D6508E2076608F8
:10062800E33D6708E43D6208A4006308A500640888
:10063800A600A61B2B2B2608031D282BB730240247
:100648000830253B031C2B2BFF3021002F2B2100CA
:10065800A61F332B2030C1000330C200442B0A30C0
:10066800CD000030CE002508D0002408CF00873107
:10067800CA2782314D08203EC10003304E3DC200DA
:10068800A61B562B2608031D4F2BB7302402083013
:10069800253B031C562BB6302100A4000830A500CA
:1006A8000030672B2100A61F682BE0302402FC30A5
:1006B800253BFF30263B0318682BE0302100A400BF
:1006C800FC30A500FF30A60021004208CE004108FA
:1006D800CD008C31C92421003008AD003108AE00AE
:1006E8003208AF0008002A0820005E022100D60068
:1006F80020005F082100D7002B08031C2B0F852B37
:10070800862BD702200060082100D8002C08031C83
:100718002C0F8F2B902BD8025608CD005708CE00EF
:100728005808CF006430D0000030D1000030D2002B
:100738008D31472583314D08B0004E08B1004F0870
:10074800B200B21BB12B3208031DBC2B3108031DAC
:10075800BC2B973030020318BC2B2100B21F0800B5
:100768006A303002FF30313BFF30323B031808005B
:1007780021002408D6002508D7002608D8002D080F
:10078800CD002E08CE002F08CF009330D000FF30C8
:10079800D100FF30D2008D31472583314D08D90073
:1007A8004E08DA004F08DB003008CD003108CE00D3
:1007B8003208CF008230D0000030D1000030D200A3
:1007C8008D31472583314D08D9074E08DA3D4F084A
:1007D800DB3D5908D6075A08D73D5B08D83D56086F
:1007E800A4005708A5005808A600A61B092C26082F
:1007F800031D052C2508031D052C01302402031CAC
:10080800092C2100C101C201192C2100A61F052CA9
:10081800C03024026330253BFF30263B0318052CEB
:1008280090302100C1000130C200A61B2B2C2608E5
:10083800031D242C213024020330253B031C2B2CC0
:1008480020302100A4000330A50000303C2C2100FA
:10085800A61F3D2C383024025030253BFF30263B64
:1008680003183D2C38302100A4005030A500FF307B
:10087800A60021003008AD003108AE003208AF00F4
:1008880008008D34B33429343D343E3403342A34DB
:100898003D34F03452342A343D349434A1342A346B
:1008A8003D344534F1342A343D34EA343F342B3472
:1008B8003D348F348E342B343D343334DD342B3493
:1008C8003D34D8342B342C343D34703479342C34C2
:1008D8003D341534C8342C343D34AD3415342D34FE
:1008E8003D34523464342D343D34EA34B1342D343B
:1008F8003D348234FF342D343D341A344D342E3493
:100908003D34A63499342E343D343E34E7342E3405
:100918003D34D73434342F343D34623481342F3469
:100928003D34EE34CD342F343D347A341A343034F7
:100938003D340634673430343D349234B334303483
:100948003D341D34003431343D34A9344C34313411
:100958003D342934983431343D34B434E4343134BA
:100968003D343434303432343D34B3347B3432346F
:100978003D343234C73432343D34B2341234333433
:100988003D3431345E3433343D34B034A9343334F7
:100998003D342334F43433343D34A3343F343434D5
:1009A8003D3416348A3434343D348934D4343434C0
:1009B8003D34FB341E3435343D346E3469343534BB
:1009C8003D34E134B33435343D345434FE343534B5
:1009D8003D34C734483436343D342E3492343634BA
:1009E8003D34A034DC3436343D34073426343734CF
:1009F8003D346D346F3437343D34D434B8343734FF
:100A08003D343A34023438343D34A1344B3438342C
:100A18003D340734953438343D34CD2D073021002A
:100A28004A06031D442D200053082100CB00200056
:100A380056082100BE00200057082100BD003E08CE
:100A4800B8003D08B70001303802A5300319370255
:100A5800031C322DA430B7000130B800200058081C
:100A68002100BE00200059082100BD003E08BC003E
:100A78003D08BB003C08CE003B08CD008C31C924A2
:100A88002100CA010800073021004A06031D442D31
:100A9800200053082100CB00200054082100BE008C
:100AA800200055082100BD003E082000E400210078
:100AB8003D082000E30021003D082000DE00210061
:100AC8003E082000DF00E00156082100BE0020009B
:100AD80057082100BD003E08B8003D08B7000130A6
:100AE8003802A53003193702031C7E2DA430B70045
:100AF8000130B80000302100A7000030A800003005
:100B0800A9000030AD000030AE000030AF0000306A
:100B1800B0000030B1000030B200442D0730210091
:100B28004A06031D442D200053082100CB00200055
:100B380054082100BE00200055082100BD003E08D1
:100B48002000E40021003D082000E30021003D08CA
:100B58002000DE0021003E082000DF00E0015808E8
:100B68002100BE00200059082100BD003E08BC003D
:100B78003D08BB003C08CE003B08CD008C31C924A1
:100B880085317E2D073021004A06031D442D0100C2
:100B9800442D20005308003A0319122D013A031975
:100BA800472D033A0319922D013A0319C62D442DF6
:100BB80008008C31642485317108E2007008E10076
:100BC8008B31992385316D03031D062E6108BF0003
:100BD8006208C000C101C201003087313727853162
:100BE80042082100A300200041082100A2002000A3
:100BF80040082100A10020003F082100A00020009B
:100C0800ED01422E210023082000B800210022080F
:100C18002000B700210021082000B600210020088C
:100C28002000B5008E316026853161083507CD007A
:100C38006208363DCE00CE36CD0C4D08CF004E08AA
:100C4800D000D101D2015208C2005108C100500899
:100C5800C0004F08BF000030873137278531420870
:100C68002100A300200041082100A2002000400824
:100C78002100A10020003F082100A0002100360823
:100C8800F3003508F2000A30F0000030F1008D3131
:100C98009725853171088500700884008435850D95
:100CA8008435850D453084070430053D803885003E
:100CB800003F2000CD00013FCE00023FCF00033FA0
:100CC800D0005008A7004F08A6004E08A5004D0800
:100CD800A400210023082000A300210022082000EE
:100CE800A200210021082000A100210020082000E6
:100CF800A0008031462085312308B8002208B700BB
:100D08002108B6002008B5008E316026360821007B
:100D1800B400200035082100B3003308AA003408C5
:100D2800AB00AC0108008D316D258631DD30CD007A
:100D38000530CE008B31C12386318B170B178C31D0
:100D4800AF24863122001518342F22008C1320007E
:100D5800931CB52E93108B31512386318C313B2453
:100D680086318B3163238631003A0319F52EF93029
:100D78008B317A2386312100C80107304A020318D3
:100D8800E82E00308B3180238631200093118B317F
:100D980063238631003A031DD62E931DCB2E2100E6
:100DA800C801C80A210048030319E82E4A08533E1F
:100DB800860087018C3103248631810001302100AF
:100DC800EE006E08CA07C12E8531112586314A30DA
:100DD8008B317A23863100308B3180238631200095
:100DE80093110B1D0A2F0B118D31CB258631210054
:100DF800C5010130EE006E08C90706304906031D1B
:100E08000A2F8F318C2786312100C9012000931DBC
:100E1800212F931100308B318023863108308C319B
:100E28007C2486314E08B6004D08B50022000C1708
:100E38001430890B1D2F22000C138B31742386313B
:100E4800EE007F306E02031C312F4508031D312F41
:100E5800C501C50A8D31CB2586312200151CA92E66
:100E680022008C17AB2EC7004708031DC21F4C2F4A
:100E78003F09C9004009CA004109CB004209CC001A
:100E8800C90A0319CA0A0319CB0A0319CC0A542F31
:100E98004208CC004108CB004008CA003F08C900FE
:100EA8004208410440043F04031D632F0030C20080
:100EB8000030C1000030C0000030BF00080096308C
:100EC800C800FE304C050319882F0130C3004308C1
:100ED800C8070130CC36CB0CCA0CC90C890B6E2F55
:100EE800652F0130C3004308C8070130C907003027
:100EF800CA3D0030CB3D0030CC3D0130CC36CB0C68
:100F0800CA0CC90C890B822FFF304C0503199A2F84
:100F1800752F02304802031C9C2F0130C802013093
:100F2800C935CA0DCB0DCC0D890B942FCB1F8D2F36
:100F38004818A62FFF30C905FF30CA057F30CB05FA
:100F4800FF30CC050310C80C4808C300C401C50114
:100F5800C6011830C335C40DC50DC60D890BAE2F9B
:100F68004308C9044408CA044508CB044608CC040D
:100F78004708031DC21FC12FCC174C08C2004B08DD
:100F8800C1004A08C0004908BF000800D201D301C7
:100F98004D084E040319F92FD401D40ACE1BDE2FB5
:100FA8000130CD35CE0D890BD52F0130D100510838
:100FB800D407D22F0130D235D30D890BDF2F4E083D
:100FC8005002031DE92F4D084F02031CF02F4D0856
:100FD800CF024E08D03B52140130CE36CD0C890BCF
:100FE800F12F0130D402031DDE2F5308CE00520822
:080FF800CD000800080008000C
:10169C00853097000800280017110800280017153E
:1016AC0008001630210097000800220015080139A7
:1016BC00080015340034003401342000110E890C5C
:1016CC00013908008430220091001030920008008B
:1016DC008030220098000630990008002000150880
:1016EC002100CD004D0808002100CD004D08280038
:1016FC009D0008002100CD004D0828009C0008002A
:10170C00640080010131890B872B0034FE0012002C
:10171C001E00FE0B8D2B00347830210099009801AF
:10172C0022009601080021004408F1004308F00053
:10173C008C311D240800D33021009E009B019C019C
:10174C0001309D0008004E082200B00021004D0819
:10175C002200AF0008004E082200B40021004D0802
:10176C002200B30008004E082200B20021004D08F0
:10177C002200B10008004E082000EF0021004D08A7
:10178C002000EE000800FF3020009B009A01911011
:10179C0007309C000800CD002000111ED22B210028
:1017AC004D0823009A00080021001508C03917388D
:1017BC00950020009501E9010B110800F930280073
:1017CC0096009501200093104F30280097000800D8
:1017DC004A3028009D009C01200093114F302800B6
:1017EC009E00080091136E086F04031908006F081F
:1017FC008A006E080A008C3108002000911E032C10
:10180C002100CC0123009D1C0D2C1D121D16190846
:10181C0008003C3025009300950180309400013085
:10182C00960092017F309100FC309E05080020004C
:10183C00181D272C181071089700700896001814A2
:10184C0008007108970070089600080004340034F2
:10185C0000340F340034003411340034003420349C
:10186C00003400346D340034003421004B03031D6C
:10187C00432C823142228C314A2C02304B06031D00
:10188C004A2C833177238C318B315423080022006E
:10189C008C018D01213021008C00F7308D00F0304F
:1018AC0023008D0001308C0024008D018C0121005F
:1018BC00951722009D019E018B1508001608FA0051
:1018CC001708F9007A08F200F3017908F400F50121
:1018DC007408F500F40172087404F70073087504B9
:1018EC00F8007808F1007708F00008002100D0001B
:1018FC005008CF00CF0DCF0D1D084F0683394F0672
:10190C009D001D140630890B892C003221009D147A
:10191C009D188E2C1C08CE001B08CD000800C03072
:10192C002000990097019601111017082100C4009E
:10193C00200016082100C3002000911321009117EC
:10194C00FE30CD000730CE008B31C1230130980022
:10195C0008008B315B238C31003A031DC32C013002
:10196C008D3103258C3120302100D1002930890B99
:10197C00BD2CD10BBD2C0032AF2C2100C601C60AE8
:10198C00B901BA0108004E08D0004D08CF00D0367E
:10199C00CF0CD036CF0C4F082500910021004D08FC
:1019AC000339CF000430CF35890BD92C250013080F
:1019BC00CF3921004F04250093000800F800F401F2
:1019CC00F5017008F200F3017208F6007308F700D5
:1019DC00781CF42C7608F4077708F53D0130F635C1
:1019EC00F70D890BF52C0310F80C7808031DEE2C61
:1019FC007508F1007408F00008002100D0004608BA
:101A0C0003191D2D5003031D102D0130B902003098
:101A1C00BA3B172D5008031D172D0130B9070030A4
:101A2C00BA3D5008CD0047088E3106260800CD017E
:101A3C00CD0A47088E3106260800083023009F0087
:101A4C0090309D0024309E0022309B009C01003081
:101A5C002100CD000030CE008B31B1238D31003010
:101A6C002100CD000030CE008B31B9238D310030F8
:101A7C002100CD000030CE008B31A9232100CC01F8
:101A8C0008000030D3000030D4000030D5004D1CCD
:101A9C00552D5008D3075108D43D5208D53D01307F
:101AAC00D035D10DD20D890B562D0130CF36CE0C41
:101ABC00CD0C890B5C2D4F084E044D04031D4D2D90
:101ACC005308CD005408CE005508CF0008008C31C7
:101ADC004D248D318B3192238D318B3157238D31A8
:101AEC008B316E238D318B314E238D318B31E42331
:101AFC008D318B31C9238D318B31DA238D318B3183
:101B0C00EE238D318B3168238D318B31A1238D31B7
:101B1C008C310F248D318C3195248D318D312325D1
:101B2C000800F501F601700871040319C62DF701C0
:101B3C00F70AF11BAB2D0130F035F10D890BA22DFD
:101B4C000130F4007408F7079F2D0130F535F60DC0
:101B5C00890BAC2D71087302031DB62D700872022F
:101B6C00031CBD2D7008F2027108F33B7514013093
:101B7C00F136F00C890BBE2D0130F702031DAB2D95
:101B8C007608F1007508F0000800023021004B06C1
:101B9C00031DE82D42083A02031DD62D41083902D7
:101BAC000318DC2D00308D31032508003A08420261
:101BBC00031DE22D390841020318080001308D3154
:101BCC000325080038083A02031DEE2D37083902A8
:101BDC000318F42D00308D31032508003A08380223
:101BEC00031DFA2D390837020318002E01308D31F0
:101BFC000325080022000C128C110C118C1008000B
:101C0C00CF004D030319212E2F2E22008C140C15FE
:101C1C008C11142E22008C100C158C150C12572EB6
:101C2C0022008C100C118C151F2E22008C140C1100
:101C3C008C110C16572E4F08003A03190B2E013A33
:101C4C000319102E033A0319162E013A03191B2EF1
:101C5C00572E4D080319492E572E22000C168C15A1
:101C6C000C113C2E22000C128C150C158C10572EBE
:101C7C0022000C128C110C15472E22000C168C1104
:101C8C000C118C14572E4F08003A0319332E013ABD
:101C9C000319382E033A03193E2E013A0319432E29
:101CAC00572E01302100CE004E08C70747080339D4
:101CBC00C70008000310370D380DBE003E08031D89
:101CCC00702E0030B8000030B7000030B600003085
:101CDC00B50008003508B9003608BA003708BB0053
:101CEC003808BC001F30BC36BB0CBA0CB90C890BC5
:101CFC00792E3908BD00B717FF30B505FF30B60592
:101D0C00FF30B7050030B8059630BE02BE1FA12EBD
:101D1C003E08803A973E031C672E0130B836B70C4C
:101D2C00B60CB50C890B942E0130B9003908BE07DE
:101D3C000319B22E932E20303E020318672E3E0854
:101D4C000319B22E0130B535B60DB70DB80D890B90
:101D5C00A92E0130BE02A52E3D0803190800B509B5
:101D6C00B609B709B809B50A0319B60A0319B70AAF
:101D7C000319B80A080003104F0D500DD600560871
:101D8C00031DD12E0030D0000030CF000030CE002B
:101D9C000030CD0008004D08D1004E08D2004F088D
:101DAC00D3005008D4001F30D436D30CD20CD10C35
:101DBC00890BDA2E5108D500CF17FF30CD05FF3037
:101DCC00CE05FF30CF050030D0059630D602D61F99
:101DDC00022F5608803A973E031CC82E0130D0368D
:101DEC00CF0CCE0CCD0C890BF52E0130D100510847
:101DFC00D6070319132FF42E203056020318C82EC1
:101E0C0056080319132F0130CD35CE0DCF0DD00D43
:101E1C00890B0A2F0130D602062F5508031908002A
:101E2C00CD09CE09CF09D009CD0A0319CE0A031961
:101E3C00CF0A0319D00A0800DE01D81F2F2FD609AC
:101E4C00D709D809D60A0319D70A0319D80ADE010B
:101E5C00DE0ADB1F3D2FD909DA09DB09D90A031980
:101E6C00DA0A0319DB0A0130DC005C08DE060030FC
:101E7C00DF000030E0000030E10058085704560441
:101E8C0003197A2FDD01DD0AD81B572F0130D63507
:101E9C00D70DD80D890B4D2F0130DC005C08DD0708
:101EAC004A2F0130DF35E00DE10D890B582F580812
:101EBC005B02031D672F57085A02031D672F560834
:101ECC005902031C702F5608D9025708DA3B5808E0
:101EDC00DB3B5F140130D836D70CD60C890B712F35
:101EEC000130DD02031D572F5E080319852FDF0912
:101EFC00E009E109DF0A0319E00A0319E10A5F08A6
:101F0C00D6006008D7006108D80008004B088B3158
:101F1C00D1238F31200064082100C0002000630809
:101F2C002100BF0040088B31D1238F3121003F08A5
:101F3C008B31D1238F3121003408C0003308BF000E
:101F4C0040088B31D1238F3121003F088B31D123B5
:101F5C008F3121002308D0002208CF002108CE00A9
:101F6C002008CD008E31C1268F314E08C0004D089F
:101F7C00BF0040088B31D1238F3121003F088B31BA
:101F8C00D1238F3121003608C0003508BF0040082E
:101F9C008B31D1238F3121003F088B31D1238F31ED
:101FAC0021003808C0003708BF0040088B31D1230E
:101FBC008F3121003F088B31D1238F3121003A081A
:101FCC00C0003908BF0040088B31D1238F3121006C
:101FDC003F088B31D1238F3121003C08C0003B08D6
:101FEC00BF0040088B31D1238F3121003F088B314A
:041FFC00D1230800E5
:020000040001F9
:04000E00E43FFF3E8E
:00000001FF
