:0400000080315328D0
:100008007E1480318B1E09280A2812280B1D0D2802
:100018000E28122886312826803151288B1D152854
:1000280016281E280B1C19281A281E2887319427E1
:10003800803151280B1F2128222851282100931D87
:100048002628272830282000931D2B282C283028E4
:100058008631D626803151282100111E34283528B2
:1000680040282000111E39283A2840286B088A00A9
:100078006A080A00803151282100911E4428452829
:1000880051282000911E49284A28512821004D084E
:100098008A004C080A00803151287E1009008031FE
:1000A8005528F1308400863085005A3086000030AB
:1000B80087000C308731422780312030840000309F
:1000C80085002830873148278031A03084000030EF
:1000D800850024308731482780317E102000833105
:1000E800BA2BF6000130F00070082000BC073C086D
:1000F8000339BC00873180278031003A03198528ED
:1001080086288B282000BB01BB0ABD018D28200052
:10011800BB013B08031D91289228B928AB2822006F
:100128008C140C158C110C12B92822008C100C158B
:100138008C150C12B92822008C100C118C150C1679
:10014800B92822008C140C118C110C16B9283C0803
:10015800003A03199328013A03199928033A031915
:100168009F28013A0319A528B92820003B0803193C
:10017800BE28C0280130C1280030F000F101700805
:100188007604F2007108F300720873040319CD288D
:10019800CE28F8283D086407BD00EA2822008C1400
:1001A8000C158C110C123A2922008C100C158C1588
:1001B8000C123A2922008C100C118C150C163A29B5
:1001C80022008C140C118C110C163A293C08003AA8
:1001D8000319D228013A0319D828033A0319DE284B
:1001E800013A0319E4283A293B08F000F10176089E
:1001F8000319FF280129013002290030F200F30118
:1002080070087205F40071087305F5007408750428
:1002180003190F2910293A2964083D02BD002C2929
:1002280022000C168C150C118C103A2922000C1285
:100238008C150C158C103A2922000C128C110C15F7
:100248008C143A2922000C168C110C118C143A29A2
:100258003C08003A03191429013A03191A29033AE8
:1002680003192029013A031926293A290800E02907
:10027800053020003E06031D42294329EF292100AD
:1002880021088631B82681312000C800C80E21080F
:1002980048060F394806A100210022088631B826F1
:1002A80081312000C80021084806F0394806A1001D
:1002B800210023088631B82681312000C800C80EE5
:1002C800200848060F394806A00021002408863176
:1002D800B82681312000C80020084806F0394806B1
:1002E800A0002108F1002008F0008631572681314E
:1002F800EF29EF29053020003E06031D84298529B2
:10030800EF29210021088631B82681312000C80054
:10031800C80E230848060F394806A3002100220802
:100328008631B82681312000C80023084806F039F4
:100338004806A300210023088631B8268131200011
:10034800C800C80E220848060F394806A200210036
:1003580024088631B82681312000C80022084806C2
:10036800F0394806A2001430F6000030F7002308E0
:10037800F9002208F80084317124813177082000BF
:10038800B1007608B000EF29023020003E06031DB8
:10039800CE29CF29EF29210021088631B8268131BD
:1003A800003A031DD829D929DC292000E501EF29C5
:1003B8002000E501E50AEF2921002008473A031942
:1003C8003C290F3A03197D29013A03197E29033A7A
:1003D8000319C829EF290800200032083002B400A8
:1003E8003308313BB5003508803A2100CE00803013
:1003F8004E02031D022A9730200034020318052AF2
:10040800062A162A20003508803A2100CE008030BE
:100418004E02031D122A9630200034020318152AB2
:10042800162A912A20003F082100CE00CF014E084D
:100438002000CC0021004F082000CD003508CF0057
:100448003408CE008531B425813120004D082100C3
:10045800D10020004C082100D000E8302000D20054
:100468000330D300210051082000CD00210050089E
:100478002000CC001330CE000030CF008531B425E9
:10048800813120004D08D5004C08D4008331F72372
:10049800813120005208AA075308AB3D27302B02B0
:1004A800F73003192A02031C5A2A5B2A5F2AF630FE
:1004B800AA002730AB000A30D2000030D30035083C
:1004C800CD003408CC000C30CE000030CF00853190
:1004D800B425813120002A084C07D4002B084D3D53
:1004E800D5008331F723813120005308A900520831
:1004F800A80004302902003003192802031C852AA9
:10050800862A8A2AFF30A8000330A9002908CD00CE
:100518002808CC008531F3258131080020003208F5
:100528003002F0003308313BF1000A30F2000030AD
:10053800F3008531D425823171082000B500700898
:10054800B4003508803AC80080304802031DAE2A3E
:10055800973034020318B12AB22AC02A200035087D
:10056800803AC80080304802031DBC2A9630340205
:100578000318BF2AC02A2A2B20003F08C800C90137
:100588004808F0004908F1003508F3003408F20083
:100598008531D425823171082000CB007008CA004B
:1005A800E830F6000330F7004B08F1004A08F00085
:1005B8006108F3006008F2008531D42582317108A2
:1005C800F9007008F800843171248231760820001F
:1005D800AA077708AB3DAF302B02C93003192A02AE
:1005E800031CF72AF82AFC2AC830AA00AF30AB004F
:1005F8006430F6000030F7003508F1003408F000E8
:100608006308F3006208F2008531D42582312000A6
:100618002A087007F8002B08713DF900843171240D
:10062800823177082000A9007608A8000130290245
:10063800C33003192802031C222B232B272BC2307B
:10064800A8000130A90085314B258231080020001F
:10065800250E0F398631822683318431FD2483317A
:10066800200025080F398631822683318431FD2404
:1006780083312000240E0F3986318226833184315C
:10068800FD248331200024080F39863182268331E6
:100698008431FD2483312000270E0F3986318226CC
:1006A80083318431FD248331200027080F398631B6
:1006B800822683318431FD2483312000260E0F39B0
:1006C8008631822683318431FD2483312000260837
:1006D8000F398631822683318431FD2483310D30F0
:1006E8008431FD2483310800210091123430200028
:1006F800CC000430CD008731072783312100111247
:1007080071302000CC000530CD0087316627833159
:10071800083023009F0090309D0024309E00223036
:100728009B009C0195302000CC000730CD0087311C
:100738001927833184302000CC000730CD00873161
:100748001027833188302000CC000730CD00873156
:10075800222783312000C101C701C6010830C50026
:10076800C401C301C2012100911608008431AD24DF
:1007780083312B302000CC000330CD008731602737
:100788008331D5302000CC000430CD0087310727D5
:10079800833192302000CC000230CD0087315A27B7
:1007A80083318B170B17083085319325833120004F
:1007B8004D082100C50020004C082100C4008731E5
:1007C800542783312000BF00D1303F02031CED2B9A
:1007D800EE2BD72B87318F2783318631A72683319C
:1007E800D72B803153282000D801D901520853044F
:1007F8000319FF2B002C2F2CD701D70A0C2C013002
:10080800D235D30D890B042C0130D6005608D707F2
:10081800D31F0F2C102C032C0130D835D90D890B80
:10082800112C53085502031D1B2C52085402031C9B
:100838001E2C1F2C242C5208D4025308D53B5814C4
:100848000130D336D20C890B252C0130D702031D79
:100858002E2C2F2C102C5908D3005808D200080031
:1008680020004408A83E86008701810123001D1D41
:100878003E2C3F2C4B2C20004408A83E86008701C4
:10088800811421004B088A004A080A008431230099
:100898009D1C4F2C502C5C2C20004408A83E860040
:1008A80087010115210049088A0048080A00843197
:1008B80020004408A83E8600870101080319652C1A
:1008C800662C6D2C210047088A0046080A008431EE
:1008D800702C86310F2684310800FB01FC01760854
:1008E80077040319782C792CA82CFD01FD0A852C96
:1008F8000130F635F70D890B7D2C0130FA007A08A6
:10090800FD07F71F882C892C7C2C0130FB35FC0D4A
:10091800890B8A2C77087902031D942C76087802B3
:10092800031C972C982C9D2C7608F8027708F93B25
:100938007B140130F736F60C890B9E2C0130FD0232
:10094800031DA72CA82C892C7C08F7007B08F6002F
:10095800080086314026843187313B27843187312E
:100968007827843187316C27843187317C2784311B
:100978008631FD26843187312B27843186319526AF
:10098800843186316E2684318731722784318731EC
:10099800332784318631C8268431833178238431E2
:1009A80008008531252584312000CA0024304A06F4
:1009B800031DDF2CE02CE22CBE01FC2C0D304A0676
:1009C800031DE72CE82CEC2C81313B218431FC2CD5
:1009D80007303E020318F12CF22CFC2C3E08A03EF6
:1009E800860087014A0881000130C9004908BE070E
:1009F8000800F100200045080319032D042DFE2CE2
:100A08002100111A082D092D0D2D710823009A00B7
:100A1800222D111220004708B83E86008701710870
:100A280081000130F0007008C70708304702031C36
:100A38001E2D1F2D202DC7010130C50221001116C2
:100A480008002000420803192A2D2B2D252D4308C4
:100A5800A83E860087010108C1004308B03E860011
:100A680087010108F1000130F0007008C307083061
:100A78004302031C402D412D422DC3012100911238
:100A880001302000C20221009116710808002000E0
:100A98003D08F700F80177082802AE007808293BDE
:100AA800AF002F08803AF70080307702031D5E2DD3
:100AB80001302E02031C612D622D672D013080311B
:100AC80075208531702D2000AF1F6B2D6C2D702D7A
:100AD800003080317520853108000830200045023B
:100AE8000318772D782D902D4608B83E860087018B
:100AF800010823009A000130F00070082000C607A2
:100B080008304602031C892D8A2D8B2DC601013021
:100B1800F0007008C507922D21001112080020006E
:100B2800CF004F08CE00CE0DCE0D21001D082000AD
:100B38004E0683394E0621009D001D140630890B90
:100B4800A32D003221009D149D18AB2DAC2DA82D8E
:100B58001C082000CD0021001B082000CC00080044
:100B68002000D001D1014C1CBA2DBB2DBF2D4E0841
:100B7800D0074F08D13D0130CE35CF0D890BC02DA0
:100B88000130CD36CC0C890BC52D4C084D04031D06
:100B9800CE2DCF2DB72D5108CD005008CC00080020
:100BA800F401F501701CD92DDA2DDE2D7208F40739
:100BB8007308F53D0130F235F30D890BDF2D013057
:100BC800F136F00C890BE42D70087104031DED2D2E
:100BD800EE2DD62D7508F1007408F00008002000ED
:100BE8004D08CF004C08CE00CF36CE0CCF36CE0CF9
:100BF8004E082500910020004C080339CE0004302F
:100C0800CE35890B042E25001308CF3920004E0459
:100C180025009300080020004408B03E86008701A4
:100C28002300190881000130F00070082000C40773
:100C380008304402031C212E222E232EC401013029
:100C4800F0007008C20708000B112000400895004A
:100C58000130B8070030B93D0030390202300319BD
:100C68003802031C382E392E3F2E8631E426863171
:100C78002000B801B901080022008C018D01E13083
:100C880021008C00F7308D00F03023008D000130FA
:100C98008C0024008D018C012100951722009D01F4
:100CA8009E018B1508007108F3007008F200F336F6
:100CB800F20CF336F20C7208250091007008033923
:100CC800F2000430F235890B662E1308CF3972040E
:100CD80093000800BB3028009D009C012000931160
:100CE8002100931592302000CC000730CD008731C9
:100CF8005A2786310F3028009E000800F00070083F
:100D08000F39F0000A30700203188B2E8C2E902EAB
:100D18007008303EF000932E7008373EF0007008DF
:100D2800080021001508C0391738950020009501E2
:100D3800C0010B118B169330CC000730CD008731E2
:100D480060278631080020006503031DAC2EAD2EF8
:100D5800B02E8131F0218631003087314E2786311F
:100D680087318C2786310800F0003A30700203186A
:100D7800BE2EBF2EC32E7008D03EF000C62E7008BF
:100D8800C93EF000700808003C302500930095012A
:100D9800803094000130960092017F309100FC3041
:100DA8009E05080020009311660867040319DD2ECC
:100DB800DE2EE32E67088A0066080A0086310800DE
:100DC8002000680869040319EA2EEB2EF02E690842
:100DD8008A0068080A008631080001340034133498
:100DE80000340C340034693400342D3400340134B8
:100DF8000134FA30280096009501200093102F3016
:100E080028009700080020004D082100CD00200090
:100E18004C082100CC00080020004D082100C90022
:100E280020004C082100C800080020004D082100BF
:100E3800CB0020004C082100CA00080020004D0803
:100E48002100C70020004C082100C6000800FF3020
:100E580020009B009A01911004309C000800D330B8
:100E680021009E009B019C0101309D000800783004
:100E7800210099009801220096010800FE00120046
:100E88001E00FE0B432F0034640080010131890BE2
:100E9800492F00342000CC004C0828009600080098
:100EA800280015082000CC004C08080020004D0838
:100EB800E7004C08E600080020004D08E9004C084F
:100EC800E800080020004D08EB004C08EA00080084
:100ED80080302200980006309900080084302200F3
:100EE8009100103092000800163021009700080089
:100EF80084302200970008002200150801390800F4
:100F080023001D121D16080086310F2687310800A0
:100F18002800171508002800171108000800080005
:040F280008000800B5
:020000040001F9
:04000E00E43FFF3E8E
:00000001FF
